{
  "contractName": "MyContract",
  "abi": [
    {
      "anonymous": false,
      "inputs": [
        {
          "indexed": true,
          "internalType": "address",
          "name": "user",
          "type": "address"
        },
        {
          "indexed": false,
          "internalType": "bool",
          "name": "success",
          "type": "bool"
        }
      ],
      "name": "VerificationOutcome",
      "type": "event"
    },
    {
      "inputs": [
        {
          "internalType": "address",
          "name": "",
          "type": "address"
        }
      ],
      "name": "verifiedUsers",
      "outputs": [
        {
          "internalType": "bool",
          "name": "",
          "type": "bool"
        }
      ],
      "stateMutability": "view",
      "type": "function",
      "constant": true
    },
    {
      "inputs": [
        {
          "internalType": "string",
          "name": "credentials",
          "type": "string"
        }
      ],
      "name": "verifyCredentials",
      "outputs": [
        {
          "internalType": "bool",
          "name": "",
          "type": "bool"
        }
      ],
      "stateMutability": "nonpayable",
      "type": "function"
    },
    {
      "inputs": [
        {
          "internalType": "string",
          "name": "outcome",
          "type": "string"
        }
      ],
      "name": "recordOutcome",
      "outputs": [],
      "stateMutability": "nonpayable",
      "type": "function"
    }
  ],
  "bytecode": "0x608060405234801561001057600080fd5b50610505806100206000396000f3fe608060405234801561001057600080fd5b50600436106100415760003560e01c8063c184ffe714610046578063e25e31a414610062578063e35fe36614610092575b600080fd5b610060600480360381019061005b919061028a565b6100c2565b005b61007c6004803603810190610077919061028a565b6100c5565b6040516100899190610377565b60405180910390f35b6100ac60048036038101906100a79190610261565b6101c4565b6040516100b99190610377565b60405180910390f35b50565b6000806040516020016100d790610362565b60405160208183030381529060405280519060200120836040516020016100fe919061034b565b60405160208183030381529060405280519060200120149050806000803373ffffffffffffffffffffffffffffffffffffffff1673ffffffffffffffffffffffffffffffffffffffff16815260200190815260200160002060006101000a81548160ff0219169083151502179055503373ffffffffffffffffffffffffffffffffffffffff167f44b2ba2199616901a243aff075bacd09e6e4cdcc31c7ccd0706e38973db44246826040516101b39190610377565b60405180910390a280915050919050565b60006020528060005260406000206000915054906101000a900460ff1681565b60006101f76101f2846103c3565b610392565b90508281526020810184848401111561020f57600080fd5b61021a848285610447565b509392505050565b600081359050610231816104b8565b92915050565b600082601f83011261024857600080fd5b81356102588482602086016101e4565b91505092915050565b60006020828403121561027357600080fd5b600061028184828501610222565b91505092915050565b60006020828403121561029c57600080fd5b600082013567ffffffffffffffff8111156102b657600080fd5b6102c284828501610237565b91505092915050565b6102d48161041b565b82525050565b60006102e5826103f3565b6102ef81856103fe565b93506102ff818560208601610456565b80840191505092915050565b60006103186013836103fe565b91507f6578616d706c655f63726564656e7469616c73000000000000000000000000006000830152601382019050919050565b600061035782846102da565b915081905092915050565b600061036d8261030b565b9150819050919050565b600060208201905061038c60008301846102cb565b92915050565b6000604051905081810181811067ffffffffffffffff821117156103b9576103b8610489565b5b8060405250919050565b600067ffffffffffffffff8211156103de576103dd610489565b5b601f19601f8301169050602081019050919050565b600081519050919050565b600081905092915050565b600061041482610427565b9050919050565b60008115159050919050565b600073ffffffffffffffffffffffffffffffffffffffff82169050919050565b82818337600083830152505050565b60005b83811015610474578082015181840152602081019050610459565b83811115610483576000848401525b50505050565b7f4e487b7100000000000000000000000000000000000000000000000000000000600052604160045260246000fd5b6104c181610409565b81146104cc57600080fd5b5056fea2646970667358221220085a61a64fe83b8d23e4dd13c2e3ff9055a47322041d69f9448e5b0a794dd4ab64736f6c63430008000033",
  "immutableReferences": {},
  "source": "// contracts/MyContract.sol\r\n// SPDX-License-Identifier: MIT\r\npragma solidity ^0.8.0;\r\n\r\ncontract MyContract {\r\n    // Mapping to store verified users\r\n    mapping(address => bool) public verifiedUsers;\r\n    // Event to log verification outcomes\r\n    event VerificationOutcome(address indexed user, bool success);\r\n\r\n    // Function to verify user credentials\r\n    function verifyCredentials(string memory credentials) public returns (bool) {\r\n        // Example verification logic\r\n        bool isVerified = keccak256(abi.encodePacked(credentials)) == keccak256(abi.encodePacked(\"example_credentials\"));\r\n        verifiedUsers[msg.sender] = isVerified;\r\n\r\n        // Emit an event with the verification outcome\r\n        emit VerificationOutcome(msg.sender, isVerified);\r\n\r\n        return isVerified;\r\n    }\r\n\r\n    // Function to record outcome (can be extended as needed)\r\n    function recordOutcome(string memory outcome) public {\r\n        // Record outcome logic (e.g., log the outcome)\r\n        // Placeholder logic for recording outcome\r\n        // In a real scenario, you might store this in a state variable or emit another event\r\n    }\r\n}\r\n",
  "sourcePath": "C:\\Users\\donni\\MyTruffleProject\\contracts\\MyContract.sol",
  "compiler": {
    "name": "solc",
    "version": "0.8.0+commit.c7dfd78e.Emscripten.clang"
  },
  "schemaVersion": "3.4.16",
  "updatedAt": "2024-06-06T21:58:14.515Z",
  "networkType": "ethereum",
  "devdoc": {
    "kind": "dev",
    "methods": {},
    "version": 1
  },
  "userdoc": {
    "kind": "user",
    "methods": {},
    "version": 1
  }
}